:1000000047C061C060C05FC0AFC05DC05CC05BC0C6
:10001000C5C797C058C020C156C055C054C053C0B2
:1000200052C051C050C0416C6D747261636B657297
:100030002056302E39310A0D00416C6D74726163A7
:100040006B65722056302E39310A0D00526561649D
:1000500079210A0D004E414E494E495459494E46A8
:10006000CDCCCC3D0AD7233C17B7D13877CC2B3237
:100070009595E6241FB14F0A000020410000C842B8
:1000800000401C4620BCBE4CCA1B0E5AAEC59D7417
:1000900011241FBEC0E0D4E0DEBFCDBF10E0A0E65B
:1000A000B0E0E8E5F8E102C005900D92A63CB1078A
:1000B000D9F722E0A6ECB0E001C01D92A03FB20744
:1000C000E1F7CBD7C7CB9CCF15BA84E184BB1092A4
:1000D000C7001092C60008958130910519F002976B
:1000E00041F008956130710511F4AA9A0895AA9813
:1000F00008956130710511F4AC9A0895AC98089593
:1001000084E690E09093C7008093C600AC9A08956F
:100110008091C6009091C7008436910538F08456CE
:1001200091099093C7008093C6000895AC980895F4
:100130008093CA0008958091C90008958093C900F2
:1001400008951F920F920FB60F9211248F938091F2
:10015000CA00882319F01092C90012BE8F910F9027
:100160000FBE0F901F9018951F920F920FB60F920F
:1001700011242F933F934F935F936F937F938F93AC
:100180009F93AF93BF93EF93FF938091CA0088230F
:1001900079F0E091C800EF5FEF70E093C800F0E005
:1001A000EE57FF4F808188BB8091930284BD03C0CE
:1001B00080E080D214BCFF91EF91BF91AF919F91ED
:1001C0008F917F916F915F914F913F912F910F9000
:1001D0000FBE0F901F9018958FEB89B986E880BDF0
:1001E00088E98AB908955D9903C000005D9BFDCF41
:1001F0005D998CB90895CF93C82F892FF4DF8C2F88
:10020000F2DFCF910895CF93DF93EC01FE012491AB
:10021000222349F02196FC018491E5DFCE01FE0105
:1002200024912111F7CFDF91CF9108958091CB00D8
:100230009091CC00891779F08F5F803219F080930C
:10024000CB0002C01092CB00E091CB00F0E0E35372
:10025000FF4F808169D608951F920F920FB60F92BB
:1002600011242F933F934F935F936F937F938F93BB
:100270009F93AF93BF93EF93FF9342DF8091CC00A6
:100280008F5F803219F08093CC0002C01092CC00B6
:100290008CB1E091CC00F0E0E353FF4F8083FF91FD
:1002A000EF91BF91AF919F918F917F916F915F91EE
:1002B0004F913F912F910F900FBE0F901F90189567
:1002C0002091F5003091F600822793279093EE005D
:1002D0008093ED003695279580FD05C03093F6009C
:1002E0002093F500089588E0282784E83827309384
:1002F000F6002093F5000895FF920F931F93CF937C
:10030000DF93182F8093F3001092F20008EA0F2E6B
:10031000F1EDFF2EF02D9091F3009170C92F80E048
:10032000D82FD093F100C093F0001E3719F410922B
:10033000EF0002C0CE01C4DFCD2B61F41092EF00BC
:1003400080919302883A11F48F2D01C0802F809301
:10035000930214C09091EF009F5F9093EF0095304F
:1003600069F48DEB60D680919302883A11F48F2D59
:1003700001C0802F809393021092EF009091F300C0
:1003800096959093F3008DEB4ED69091F2009F5F7F
:100390009093F200983008F4BECFDF91CF911F9177
:1003A0000F91FF9008958091F5009091F60090953F
:1003B0009093F4008095A0DF8091F4009DDF8EE79C
:1003C0009BDF0895CF93DF93EC018881882329F088
:1003D000219692DF89918111FCCFDF91CF91089511
:1003E000CF93DF9300D000D01F92CDB7DEB785E06A
:1003F000E0E6F0E0DE01119601900D928A95E1F7BA
:10040000E3D0813051F0CE010196DCDF82E674DF6B
:1004100080E472DF83E670DF12C0CE010196D2DF86
:1004200082E66ADF80E468DF82E666DFCE0101965D
:10043000C9DF84E661DF80E45FDF85E65DDF0F9082
:100440000F900F900F900F90DF91CF9108950F9321
:100450001F93CF93DF93C4E9D2E00AE912E08991B8
:10046000880F4ADFC017D107D1F780E645DFDF915B
:10047000CF911F910F910895EF92FF920F931F93C9
:10048000CF93DF93CDB7DEB727970FB6F894DEBFD3
:100490000FBECDBFCE010196AED08E010F5F1F4FB4
:1004A0007E0188E0E80EF11CF80181918F0124DFC4
:1004B0000E151F05C9F727960FB6F894DEBF0FBEBD
:1004C000CDBFDF91CF911F910F91FF90EF900895D5
:1004D000CF938FEF9FEF9093F6008093F500C8ECD9
:1004E0008EE70ADFC150E1F7B2DFC6DF79DF83E0D4
:1004F00003DF80EF01DFCF910895CF93DF93CDB776
:10050000DEB727970FB6F894DEBF0FBECDBF87E0EA
:10051000E5E7F0E0DE01119601900D928A95E1F792
:100520001092AA021092AB021092AC021092AD028D
:1005300087E0FE013196AEEAB2E001900D928A9515
:10054000E1F788E78093B5021092E80289E0E5E6DA
:10055000F0E0A6EBB2E001900D928A95E1F785E01C
:10056000EFE6F0E0A9EEB2E001900D928A95E1F796
:1005700044E450E060E070E08AEA92E0A9D6279671
:100580000FB6F894DEBF0FBECDBFDF91CF910895B7
:1005900044E450E060E070E08AEA92E089D662E9E3
:1005A00070E089EE92E06CD6892B09F0A6DF089501
:1005B00044E450E060E070E07BD6089544E450E00D
:1005C00060E070E085D6089544E450E060E070E0BB
:1005D0008AEA92E06DD68091E802089544E450E002
:1005E00060E070E08AEA92E063D68091B5028C33D5
:1005F00008F48CE30895CF93DF93EC0144E450E0DA
:1006000060E070E08AEA92E053D687E0EEEAF2E03A
:10061000DE0101900D928A95E1F7DF91CF91089567
:10062000CF93DF93CDB7DEB72D970FB6F894DEBF2B
:100630000FBECDBF86E0ECE7F0E0DE01189601903A
:100640000D928A95E1F7CE010196D5DF46E050E0A4
:10065000BE016F5F7F4FCE01089605D621E0892B42
:1006600009F420E0822F2D960FB6F894DEBF0FBE5E
:10067000CDBFDF91CF910895CF93DF93EC01662337
:1006800019F0613029F013C066E270E0E5D50FC0C3
:1006900044E450E060E070E08AEA92E009D682E348
:1006A000E6EBF2E0DE0101900D928A95E1F7DF9131
:1006B000CF9108958093F700089591E09093F7000B
:1006C000A895809584BD8091F700882329F0AEDD40
:1006D0008091F7008111FBCF08950F931F9361154F
:1006E00071058105910569F000E010E09801A89579
:1006F0000F5F1F4F2F4F3F4F061717072807390768
:10070000B1F71F910F910895882319F08130B1F04E
:10071000089561E070E082E090E0DEDC60E47DE07E
:1007200083E090E0DADF60E070E082E090E0D4DC2B
:1007300060E47DE083E090E0D0DF089561E070E068
:1007400082E090E0C9DC60EC77E289E090E0C5DF10
:1007500060E070E082E090E0BFDC60E47DE083E098
:1007600090E0BBDF089560E070E082E090E0B4DCF0
:1007700060EC7CE585E190E0B0DF52DF811139C0AB
:10078000C3DF60E472E48FE090E0A7DF80E0BCDFCD
:1007900081E0BADF80E0B8DF60E472E48FE090E0EF
:1007A0009CDF80E0B1DF81E0AFDF80E0ADDF60E4BF
:1007B00072E48FE090E091DF81E0A6DF81E0A4DFCA
:1007C00081E0A2DF60E472E48FE090E086DF80E009
:1007D0009BDF81E099DF80E097DF60E472E48FE0E7
:1007E00090E07BDF60EC7CE585E190E076DF80E007
:1007F000089581E089DF81E087DF81E085DF60E4C3
:1008000072E48FE090E069DF81E07EDF80E07CDFF2
:1008100081E07ADF81E008951092C2011092C10157
:100820000895A82FA295AF70B0E0AB54BF4F2C91A4
:1008300030E0322F22278F70E82FF0E0EB54FF4F8B
:100840008081A901480F511DCA010895813410F01B
:10085000875301C08053613410F0675301C0605367
:1008600090E1899F600D1124862F0895E6ECF1E058
:1008700001900020E9F73197CF01865C91402DEF80
:10088000280F69F0E6ECF1E0845090E089539E4F28
:1008900040E031914327E817F907D9F701C040E05C
:1008A00030E0E42FEF70F0E0EB54FF4FD901AA5392
:1008B000BE4F91E0508112968C91581390E0429572
:1008C0004F70E42FF0E0EB54FF4FD901AA53BE4F15
:1008D00081E0408111962C91421380E08923089594
:1008E0008091C2010895382F882371F0E6ECF1E081
:1008F00080E020E08F5F91919C3209F42F5F2317F5
:1009000020F4883CB9F7089580E008952F923F9233
:100910004F925F927F928F929F92AF92BF92CF92AF
:10092000DF92EF92FF920F931F93CF93DF93CDB798
:10093000DEB7C454D1090FB6F894DEBF0FBECDBFE9
:10094000D82EA89587E280939B0245E050E066ECA4
:1009500071E088EF90E09DD41092FD0067E970E0AF
:1009600088EF90E08DD4892B61F481E08093C301FE
:1009700089E0B9DF082F10E08AE0B5DF90E0019749
:100980007EC06DE970E088EF90E07AD4892B69F43D
:100990001092C30182E0A7DFE82FF0E0EA53FE4F98
:1009A0008081813409F04EC2A1C063EA70E088EF13
:1009B00090E066D4892B59F482E08093C30193DFE1
:1009C000082F10E083E08FDF90E0019758C069EABC
:1009D00070E088EF90E054D4892B79F485E080931F
:1009E000C301CE010196E4DD8E010F5F1F4F7E0132
:1009F00025E4E20EF11CC12C19C06FEA70E088EF0B
:100A000090E03ED4892B09F01FC286E08093C30199
:100A100081E069DF90E08C0109531E4FDE011196E1
:100A20007D01FC01E15BFD4F5F0113C0D8018D9199
:100A30008D01F7DE292F2827C226DDDB0E151F05C5
:100A4000A9F78C2DEEDE8C018AE2CDDBC801D3DB69
:100A5000F6C1F8013197D8016C918081F7DEF7017A
:100A600081937F010E5F1F4F0A151B0591F7CE0181
:100A70000196A4DD8FE4B7DB8BE4B5DBE0C108179A
:100A80001907A4F4D801AA53BE4FE8EFF0E089504B
:100A90009F4F801B910B21EC31E04D914083E81773
:100AA000F90721F03196E217F307B9F788EF90E0E4
:100AB000D0D342D3CB01805F984D69E570E296D3E5
:100AC0006F5D6093A4026BE570E090D36F5D6093FF
:100AD000A5028F5D8093A6028DE78093A7028EEF1B
:100AE0008D0D823008F4B2C181E0B3C184E0FBDE39
:100AF000E82FF0E0EA53FE4FC08086E0F4DEE82FF6
:100B0000F0E0EA53FE4F708085E0EDDEE82FF0E084
:100B1000EA53FE4F808190E0C09724E6289F700141
:100B2000299FF00C1124818190E0C0979C01220F35
:100B3000331F880F991F880F991F880F991F820FE5
:100B4000931FE80EF91E828190E0C097E80EF91E0F
:100B5000870183E0C8DE482F50E021E030E066E9FD
:100B600072E0A8E9B2E04701F4E68F1A91080F2E6F
:100B7000F7E92F2EF2E03F2EF02D02C02F5F3F4FFE
:100B8000C901019782309105D1F01CF499234CF4EE
:100B900065C084309105B1F1E4F0059709F44CC0CB
:100BA0005DC0C9018D569D4FFA01EA53FE4FB080DA
:100BB000F0E2BF0EFC01B0824F5F5F4F4FC0CA0131
:100BC0008A539E4FFC018081FB0180834F5F5F4F02
:100BD000D5CFFEE4CF120AC0CA0101964A535E4F38
:100BE000FA014081405EF101408308C0CA010196CC
:100BF0004A535E4FFA014081F1014083AC014F5FDF
:100C00005F4FBCCF0A30110520F0F0E58F1691043C
:100C100050F4CA018A539E4FFC018081805E8C9300
:100C20004F5F5F4FABCFCA018A539E4FFC0180815B
:100C30008C934F5F5F4FA2CFF7E57F1208C0FA0198
:100C4000EA53FE4F8081805E809399020BC0FA01C7
:100C5000EA53FE4F80818093990204C0263031050B
:100C60000CF48CCF85E03FDEE82FF0E00A30110570
:100C700028F486E78E0D80939C0214C0043611057B
:100C800028F48CE18E0D80939C020CC00E36110569
:100C900028F488E08E0D80939C0204C088EB8E0DB2
:100CA00080939C02DF01AA53BE4F13962C91139799
:100CB00030E020533109C901880F991F220F331FDB
:100CC000220F331F220F331F280F391F14968C91C8
:100CD00090E0C097820F931F992314F480E090E076
:100CE0008A30910524F4885A80939D0203C0845E63
:100CF00080939D02EA53FE4F268130E02053310954
:100D0000C901880F991F220F331F220F331F220F93
:100D1000331F280F391F878190E0C097820F931FE0
:100D2000992314F480E090E0845E80939E0287E033
:100D3000DADD082F10E088E0D6DD482F50E00417F8
:100D40001507B4F4D801AA53BE4FE8EFF0E09801BC
:100D5000CA0189509F4F821B930B21573D4F4D91E4
:100D60004083E817F90721F03196A217B307B9F7C6
:100D700088EF90E06ED2E0D14B015C018B0188E0FE
:100D8000B2DDE82EF12C89E0AEDD482F50E0E4160C
:100D9000F506B4F4D701AA53BE4FE8EFF0E097018F
:100DA000CA0189509F4F821B930B21573D4F4D9194
:100DB0004083E817F90721F03196A217B307B9F776
:100DC00088EF90E046D2B8D19B016115710511F40E
:100DD00028E631E0083C110534F4C8016AE070E00F
:100DE00005D2645907C0C401885C91096AE070E0CB
:100DF000FDD1605D60939F02C8016AE070E0F6D1AA
:100E0000880F482F440F440F840F40E2480FC90158
:100E100064E670E0EBD1460F4093A002845E8093BD
:100E2000A10287E68093A2028FE28093A30221E0D1
:100E3000D21671F033E0D31659F082E00AC0A895BB
:100E40008D2D07C080E005C08D2D03C083E001C05B
:100E500083E0CC5BDF4F0FB6F894DEBF0FBECDBF93
:100E6000DF91CF911F910F91FF90EF90DF90CF9086
:100E7000BF90AF909F908F907F905F904F903F90EA
:100E80002F900895CF93DF93CDB7DEB7E2970FB6DB
:100E9000F894DEBF0FBECDBF8091C1018F5F8093FC
:100EA000C1019DEC899F912D11249695969596955B
:100EB000990F292F220F220F920F891305C060E08E
:100EC000CE010196D9DB10C09DEC899F912D112494
:100ED00096959695292F220F220F920F891308C0FD
:100EE00061E0CE010196C8DBA895CE0101966ADAD1
:100EF000E2960FB6F894DEBF0FBECDBFDF91CF9163
:100F000008950F931F93CF93DF93CBE9D2E008EAC4
:100F100012E08991F1D9C017D107D9F7A895DF91CF
:100F2000CF911F910F910895811103C01092C201BA
:100F30000895843211F0813229F41092C501109283
:100F4000C40108958A3049F18D3081F4E091C401E3
:100F5000F091C501EA53FE4F108288DC8130E9F43C
:100F60008091C201D3DC8093C20108952091C40115
:100F70003091C501283C31052CF01092C50110922A
:100F8000C4010895A9014F5F5F4F5093C50140937D
:100F9000C401F901EA53FE4F808308951F920F9216
:100FA0000FB60F9211242F933F934F935F936F933C
:100FB0007F938F939F93AF93BF93EF93FF93A8D8A3
:100FC00040918F02509190024F5F5F4F509390027B
:100FD00040938F029A013695279536952795ABE772
:100FE000B4E117D19695879564E6689F9001699F53
:100FF000300D11244217530709F423D08FEF8DBD14
:101000008FE68CBDFF91EF91BF91AF919F918F9132
:101010007F916F915F914F913F912F910F900FBEF4
:101020000F901F901895CF93C82F81E087D8A8956F
:10103000C095C2BF01C0FAD87ED88111FCCFCF9134
:1010400008958091910290919202009729F0019762
:10105000909392028093910208955AD05FD065D008
:1010600082DB789480E060DF8CE390E090939202E2
:101070008093910285B78F7885BF85B7806885BFDB
:101080008AEF1BDBA8952CDC833071F5C9DA882345
:1010900059F161E070E082E090E01ED88091910209
:1010A00090919202892B61F7A895579881E040D8DA
:1010B00061E070E081E090E00FD8A89509DA21DFC7
:1010C000E1DE8CDA90E090939202809391026BD9EA
:1010D00080E02ED860E070E081E090E0FDD7579A84
:1010E00080E022DFA895CCCF60E070E082E090E065
:1010F000F3D78895C5CF83E083BF85E08EBD82E0BE
:1011000085BD85E489BF089518BA8FE387BB08952C
:1011100088E181BD8FE081BDA8950895F5DFEBDF03
:10112000D3D736DA59D878DB089589E390E06BD8C5
:101130008CE490E068D8089504D06894B11150C050
:10114000089533D088F09F5790F0B92F9927B75161
:10115000A0F0D1F0660F771F881F991F1AF0BA957B
:10116000C9F712C0B13081F03AD0B1E0089537C06C
:10117000672F782F8827B85F39F0B93FCCF3869571
:1011800077956795B395D9F73EF4909580957095CE
:1011900061957F4F8F4F9F4F089557FD9058440F93
:1011A000551F59F05F3F71F04795880F97FB991FC6
:1011B00061F09F3F79F08795089512161306140683
:1011C000551FF2CF4695F1DF08C016161706180610
:1011D000991FF1CF86957105610508940895E894EB
:1011E000BB2766277727CB0197F9089597FB072E32
:1011F00016F4009406D077FD08D017D007FC05D070
:101200003EF4909581959F4F0895709561957F4F1D
:101210000895A29FB001B39FC001A39F01D0B29FC8
:10122000700D811D1124911D0895AA1BBB1B51E156
:1012300007C0AA1FBB1FA617B70710F0A61BB70B46
:10124000881F991F5A95A9F780959095BC01CD01EB
:1012500008956627772752C0FB01DC0105900D92A7
:101260000020E1F70895FB01DC0104C08D9101909D
:10127000801921F441505040C8F7881B990B0895FC
:10128000FB01DC018D91019080190110D9F3990BBC
:101290000895FB01DC014150504048F001900D924F
:1012A0000020C9F701C01D9241505040E0F7089559
:1012B000DC01CB01FC01E199FECF06C0FFBBEEBB18
:1012C000E09A31960DB20D9241505040B8F7089512
:1012D000DC01CB0102C02D9105D041505040D8F720
:1012E0000895262FE199FECF9FBB8EBB2DBB0FB675
:1012F000F894E29AE19A0FBE01960895A0E0B0E05A
:10130000E3E8F9E076C28B016115710521F0DB019C
:101310008C9311969C93EC015E01BFEFAB1ABB0A54
:101320007501C8808C2D90E041D1892B11F0E50129
:10133000F3CFEDE2CE1208C07E01F2E0EF0EF11C19
:10134000C980DD24D39409C02BE2C21205C07E01FE
:1013500042E0E40EF11CC980D12CE701219743E063
:1013600050E06DE570E0CE0129D1892BB9F42396C8
:1013700045E050E068E570E0CE0120D1892B09F40A
:1013800025960115110519F0D801CD93DC93D110E4
:1013900000C160E070E080E89FE704C143E050E0F6
:1013A00065E570E0CE010AD1892B59F401151105CC
:1013B00009F4F4C0B2E0EB0EF11CF801F182E08216
:1013C000EDC0F70160E070E0CB01C0E0D0E07F014C
:1013D000A0EDAA2EAC0C29E02A1528F14D2D426073
:1013E000B42E2D2D2870D2FE04C0211124C02196C8
:1013F00022C021112197A5E0B0E09B01AC01E9D109
:10140000660F771F881F991F6A0D711D811D911D21
:101410006839A9E97A078A07A9E19A0760F0BD2D22
:10142000B660BB2E08C02EEFA2120AC0D3FC50C07B
:101430004D2D4860B42E3196D701CC90DB2CC7CF10
:101440002C2D2F7D253409F043C0A081AD3241F40D
:10145000BD2DB061DB2E7F0122E0E20EF11C0CC03D
:101460007F01AB3231F04FEFE41AF40A21E030E0B3
:1014700006C0A2E0EA0EF11CA18122E030E0A053F8
:10148000AA3018F0E21AF30A23C0F70120E030E096
:101490002038BCE03B075CF4A901440F551F440F02
:1014A000551F240F351F220F331F2A0F311DAF0187
:1014B0004F5F5F4F7A01A081A053AA3010F4FA0168
:1014C000E7CFD4FE03C0319521953109C20FD31F58
:1014D000D1FE09C00115110531F0E1E0EE1AF10865
:1014E000D801ED92FC9286D02D2D2370233019F077
:1014F0004B015C0106C04B015C01B7FAB094B7F830
:10150000B09420E030E0A901C501B4016FD0882378
:1015100009F43CC0D7FF06C0D195C195D10904E7B5
:1015200010E002C00CE810E06801B8E1CB1AD10865
:1015300090E2E92EF12CCE15DF056CF0F801259133
:10154000359145915491C501B401B5D04B015C0171
:10155000CE19DF09F0CF04501109F594E7940C156A
:101560001D0549F78A2D880F8B2D881F8F3F41F06D
:1015700020E030E0A901C501B40138D0811106C0D6
:1015800082E290E09093EF028093EE02C501B401F5
:1015900009C060E070E080E89FEF04C060E070E0A8
:1015A00080EC9FE7CDB7DEB7ECE03FC19111E6C01C
:1015B000803219F089508550D0F70895FB01DC0185
:1015C0004150504088F08D9181341CF08B350CF4E3
:1015D000805E659161341CF06B350CF4605E861B97
:1015E000611171F3990B0895881BFCCF40D008F46A
:1015F00081E00895E89409C097FB3EF490958095AA
:10160000709561957F4F8F4F9F4F9923A9F0F92FC8
:1016100096E9BB279395F695879577956795B79546
:10162000F111F8CFFAF4BB0F11F460FF1BC06F5F2C
:101630007F4F8F4F9F4F16C0882311F096E911C03E
:10164000772321F09EE8872F762F05C0662371F05F
:1016500096E8862F70E060E02AF09A95660F771F73
:10166000881FDAF7880F9695879597F90895990F4F
:101670000008550FAA0BE0E8FEEF16161706E8075C
:10168000F907C0F012161306E407F50798F0621B7D
:10169000730B840B950B39F40A2661F0232B242B52
:1016A000252B21F408950A2609F4A140A6958FEF71
:1016B000811D811D08950BD07BC06CD028F071D0A6
:1016C00018F0952309F05DC062C0112489CD65DD55
:1016D000A0F3959FD1F3950F50E0551F629FF00145
:1016E000729FBB27F00DB11D639FAA27F00DB11D9E
:1016F000AA1F649F6627B00DA11D661F829F222727
:10170000B00DA11D621F739FB00DA11D621F839FAD
:10171000A00D611D221F749F3327A00D611D231F83
:10172000849F600D211D822F762F6A2F11249F57D1
:1017300050408AF0E1F088234AF0EE0FFF1FBB1FF4
:10174000661F771F881F91505040A9F79E3F510593
:1017500070F017C045CD5F3FECF3983EDCF3869503
:1017600077956795B795F795E7959F5FC1F7FE2B3E
:10177000880F911D9695879597F908959927882741
:10178000089597F99F6780E870E060E008959FEF03
:1017900080EC089500240A94161617061806090608
:1017A000089500240A9412161306140605060895D7
:1017B000092E0394000C11F4882352F0BB0F40F45F
:1017C000BF2B11F460FF04C06F5F7F4F8F4F9F4F9F
:1017D00008951FDDA59F900DB49F900DA49F800DCF
:1017E000911D112408952F923F924F925F926F9214
:1017F0007F928F929F92AF92BF92CF92DF92EF92A1
:10180000FF920F931F93CF93DF93CDB7DEB7CA1B21
:10181000DB0B0FB6F894DEBF0FBECDBF09942A884C
:10182000398848885F846E847D848C849B84AA84F4
:10183000B984C884DF80EE80FD800C811B81AA8181
:10184000B981CE0FD11D0FB6F894DEBF0FBECDBF4C
:08185000ED010895F894FFCFAB
:10185800AE92888A004E4F424541434F4E00006584
:10186800654F4B00009C9E86829898609C9E86825D
:1018780098983A162E1E3E1E2E16062A122202226C
:10188800122A65654F4B0047504747410047505261
:101898004D43005043414944004545505245004599
:1018A80045505752003031323334353637383941A4
:0618B800424344454600D6
:00000001FF
